{
  "contractName": "PurchaseContract",
  "abi": [
    {
      "inputs": [],
      "name": "purchaseData",
      "outputs": [
        {
          "internalType": "uint256",
          "name": "tokenid",
          "type": "uint256"
        },
        {
          "internalType": "string",
          "name": "itemName",
          "type": "string"
        },
        {
          "internalType": "uint256",
          "name": "itemPrice",
          "type": "uint256"
        },
        {
          "internalType": "uint256",
          "name": "purchaseTime",
          "type": "uint256"
        },
        {
          "internalType": "string",
          "name": "firstName",
          "type": "string"
        },
        {
          "internalType": "string",
          "name": "lastName",
          "type": "string"
        },
        {
          "internalType": "uint256",
          "name": "buyerid",
          "type": "uint256"
        },
        {
          "internalType": "string",
          "name": "email",
          "type": "string"
        }
      ],
      "stateMutability": "view",
      "type": "function"
    },
    {
      "inputs": [
        {
          "internalType": "uint256",
          "name": "tokenid",
          "type": "uint256"
        },
        {
          "internalType": "string",
          "name": "itemName",
          "type": "string"
        },
        {
          "internalType": "uint256",
          "name": "itemPrice",
          "type": "uint256"
        },
        {
          "internalType": "uint256",
          "name": "purchaseTime",
          "type": "uint256"
        },
        {
          "internalType": "string",
          "name": "firstName",
          "type": "string"
        },
        {
          "internalType": "string",
          "name": "lastName",
          "type": "string"
        },
        {
          "internalType": "uint256",
          "name": "buyerid",
          "type": "uint256"
        },
        {
          "internalType": "string",
          "name": "email",
          "type": "string"
        }
      ],
      "name": "store",
      "outputs": [],
      "stateMutability": "nonpayable",
      "type": "function"
    },
    {
      "inputs": [],
      "name": "getItemData",
      "outputs": [
        {
          "internalType": "uint256",
          "name": "tokenid",
          "type": "uint256"
        },
        {
          "internalType": "string",
          "name": "itemName",
          "type": "string"
        },
        {
          "internalType": "uint256",
          "name": "itemPrice",
          "type": "uint256"
        },
        {
          "internalType": "uint256",
          "name": "purchaseTime",
          "type": "uint256"
        },
        {
          "internalType": "string",
          "name": "firstName",
          "type": "string"
        },
        {
          "internalType": "string",
          "name": "lastName",
          "type": "string"
        },
        {
          "internalType": "uint256",
          "name": "buyerid",
          "type": "uint256"
        },
        {
          "internalType": "string",
          "name": "email",
          "type": "string"
        }
      ],
      "stateMutability": "view",
      "type": "function"
    }
  ],
  "bytecode": "0x608060405234801561001057600080fd5b50610add806100206000396000f3fe608060405234801561001057600080fd5b50600436106100415760003560e01c80633fa8601014610046578063551caa7c14610062578063ce475bbd14610087575b600080fd5b610060600480360381019061005b9190610732565b6100ac565b005b61006a610145565b60405161007e98979695949392919061088c565b60405180910390f35b61008f61039b565b6040516100a398979695949392919061088c565b60405180910390f35b87600080018190555086600060010190805190602001906100ce929190610612565b50856000600201819055508460006003018190555083600060040190805190602001906100fc929190610612565b508260006005019080519060200190610116929190610612565b5081600060060181905550806000600701908051906020019061013a929190610612565b505050505050505050565b600080600001549080600101805461015c906109ef565b80601f0160208091040260200160405190810160405280929190818152602001828054610188906109ef565b80156101d55780601f106101aa576101008083540402835291602001916101d5565b820191906000526020600020905b8154815290600101906020018083116101b857829003601f168201915b5050505050908060020154908060030154908060040180546101f6906109ef565b80601f0160208091040260200160405190810160405280929190818152602001828054610222906109ef565b801561026f5780601f106102445761010080835404028352916020019161026f565b820191906000526020600020905b81548152906001019060200180831161025257829003601f168201915b505050505090806005018054610284906109ef565b80601f01602080910402602001604051908101604052809291908181526020018280546102b0906109ef565b80156102fd5780601f106102d2576101008083540402835291602001916102fd565b820191906000526020600020905b8154815290600101906020018083116102e057829003601f168201915b505050505090806006015490806007018054610318906109ef565b80601f0160208091040260200160405190810160405280929190818152602001828054610344906109ef565b80156103915780601f1061036657610100808354040283529160200191610391565b820191906000526020600020905b81548152906001019060200180831161037457829003601f168201915b5050505050905088565b600060606000806060806000606060008001549750600060010180546103c0906109ef565b80601f01602080910402602001604051908101604052809291908181526020018280546103ec906109ef565b80156104395780601f1061040e57610100808354040283529160200191610439565b820191906000526020600020905b81548152906001019060200180831161041c57829003601f168201915b505050505096506000600201549550600060030154945060006004018054610460906109ef565b80601f016020809104026020016040519081016040528092919081815260200182805461048c906109ef565b80156104d95780601f106104ae576101008083540402835291602001916104d9565b820191906000526020600020905b8154815290600101906020018083116104bc57829003601f168201915b50505050509350600060050180546104f0906109ef565b80601f016020809104026020016040519081016040528092919081815260200182805461051c906109ef565b80156105695780601f1061053e57610100808354040283529160200191610569565b820191906000526020600020905b81548152906001019060200180831161054c57829003601f168201915b50505050509250600060060154915060006007018054610588906109ef565b80601f01602080910402602001604051908101604052809291908181526020018280546105b4906109ef565b80156106015780601f106105d657610100808354040283529160200191610601565b820191906000526020600020905b8154815290600101906020018083116105e457829003601f168201915b505050505090509091929394959697565b82805461061e906109ef565b90600052602060002090601f0160209004810192826106405760008555610687565b82601f1061065957805160ff1916838001178555610687565b82800160010185558215610687579182015b8281111561068657825182559160200191906001019061066b565b5b5090506106949190610698565b5090565b5b808211156106b1576000816000905550600101610699565b5090565b60006106c86106c384610957565b610926565b9050828152602081018484840111156106e057600080fd5b6106eb8482856109ad565b509392505050565b600082601f83011261070457600080fd5b81356107148482602086016106b5565b91505092915050565b60008135905061072c81610a90565b92915050565b600080600080600080600080610100898b03121561074f57600080fd5b600061075d8b828c0161071d565b985050602089013567ffffffffffffffff81111561077a57600080fd5b6107868b828c016106f3565b97505060406107978b828c0161071d565b96505060606107a88b828c0161071d565b955050608089013567ffffffffffffffff8111156107c557600080fd5b6107d18b828c016106f3565b94505060a089013567ffffffffffffffff8111156107ee57600080fd5b6107fa8b828c016106f3565b93505060c061080b8b828c0161071d565b92505060e089013567ffffffffffffffff81111561082857600080fd5b6108348b828c016106f3565b9150509295985092959890939650565b600061084f82610987565b6108598185610992565b93506108698185602086016109bc565b61087281610a7f565b840191505092915050565b610886816109a3565b82525050565b6000610100820190506108a2600083018b61087d565b81810360208301526108b4818a610844565b90506108c3604083018961087d565b6108d0606083018861087d565b81810360808301526108e28187610844565b905081810360a08301526108f68186610844565b905061090560c083018561087d565b81810360e08301526109178184610844565b90509998505050505050505050565b6000604051905081810181811067ffffffffffffffff8211171561094d5761094c610a50565b5b8060405250919050565b600067ffffffffffffffff82111561097257610971610a50565b5b601f19601f8301169050602081019050919050565b600081519050919050565b600082825260208201905092915050565b6000819050919050565b82818337600083830152505050565b60005b838110156109da5780820151818401526020810190506109bf565b838111156109e9576000848401525b50505050565b60006002820490506001821680610a0757607f821691505b60208210811415610a1b57610a1a610a21565b5b50919050565b7f4e487b7100000000000000000000000000000000000000000000000000000000600052602260045260246000fd5b7f4e487b7100000000000000000000000000000000000000000000000000000000600052604160045260246000fd5b6000601f19601f8301169050919050565b610a99816109a3565b8114610aa457600080fd5b5056fea264697066735822122011bcd49751d81df07d75090eb1c44a2a61a130491b7166f0ead2a7af643154ba64736f6c63430008000033",
  "immutableReferences": {},
  "source": "// SPDX-License-Identifier: MIT\r\n\r\npragma solidity ^0.8.0;\r\n\r\n\r\ncontract PurchaseContract{\r\n\r\n    struct Purchase {\r\n        uint tokenid;\r\n        string itemName;\r\n        uint itemPrice;\r\n        uint purchaseTime;\r\n        string firstName;\r\n        string lastName;\r\n        uint buyerid;\r\n        string email;\r\n    }\r\n   \r\n    Purchase public purchaseData;\r\n   //stores the purchasing information\r\n    function store(\r\n        uint256 tokenid,\r\n        string memory itemName,\r\n        uint256 itemPrice,\r\n        uint purchaseTime,\r\n        string memory firstName,\r\n        string memory lastName,\r\n        uint256 buyerid,\r\n        string memory email             \r\n    ) public {\r\n        purchaseData.tokenid = tokenid;\r\n        purchaseData.itemName = itemName;\r\n        purchaseData.itemPrice = itemPrice;\r\n        purchaseData.purchaseTime = purchaseTime;\r\n        purchaseData.firstName = firstName;\r\n        purchaseData.lastName = lastName;\r\n        purchaseData.buyerid = buyerid;\r\n        purchaseData.email = email;\r\n    }\r\n\r\n \r\n//gets/retrieves purchase information\r\n    function getItemData() public view returns(uint tokenid, string memory itemName, uint itemPrice, uint purchaseTime, string memory firstName, string memory lastName, uint buyerid, string memory email)  {\r\n       \r\n\r\n      tokenid = purchaseData.tokenid ;\r\n      itemName = purchaseData.itemName ;\r\n      itemPrice = purchaseData.itemPrice  ;\r\n     purchaseTime  = purchaseData.purchaseTime  ;\r\n      firstName = purchaseData.firstName  ;\r\n      lastName = purchaseData.lastName  ;\r\n      buyerid = purchaseData.buyerid  ;\r\n      email = purchaseData.email;\r\n    }\r\n\r\n}\r\n",
  "sourcePath": "C:\\Users\\Mikayla Dwyer\\OneDrive - Swinburne University\\Documents\\GitHub\\cos30049\\assign-1-fe\\contracts\\contracts\\PurchaseContract.sol",
  "compiler": {
    "name": "solc",
    "version": "0.8.0+commit.c7dfd78e.Emscripten.clang"
  },
  "schemaVersion": "3.4.16",
  "updatedAt": "2023-10-13T07:44:14.604Z",
  "devdoc": {
    "kind": "dev",
    "methods": {},
    "version": 1
  },
  "userdoc": {
    "kind": "user",
    "methods": {},
    "version": 1
  }
}